:100000000C948C050C94D3050C94D3050C94D30557
:100010000C94D3050C94D3050C94D3050C94D30500
:100020000C94D3050C94D3050C94DC200C94AF21D4
:100030000C9494170C94D3050C94D3050C94D3050D
:100040000C94D3050C94D3050C94D3050C94D305D0
:100050000C94D3050C94FC170C94D3050C94D30585
:100060000C94D3050C94D3050C94D3050C94D305B0
:100070000C94D3050C94D3050C94D3050C94D305A0
:100080000C94D3050C94D3050C94D3050C94D30590
:100090000C94D3050C94D3050C94D3050C94D30580
:1000A0000C94D3050C94D3050C94D30535001E0095
:1000B0001F0020002100220023002400250026002C
:1000C00027002D002E002A002B0014001A00080023
:1000D000150017001C0018000C00120013002F0060
:1000E00030000000390004001600070009000A0073
:1000F0000B000D000E000F0033003400320028000A
:10010000E10064001D001B0006001900050011003D
:1001100010003600370038000000E100E000E30086
:10012000E200000000002C000000000000000000C1
:10013000E600E7000151E00029003A003B003C00E6
:100140003D003E003F0040004100420043004400AB
:1001500045004C0001003070317032700100010028
:100160000100010001000100010052000100000037
:100170000100AA00A900A80001000100010001007F
:100180004E004B0050004F00010001000100AC0088
:10019000AB00AE00AD0001000100010001004A000B
:1001A0004D005100000001000100010001000000AD
:1001B000000001000000000000000000010001003C
:1001C0000100010001000100010001000100010027
:1001D0000100010001000100010001000100010017
:1001E0000100010001000100010001000100010007
:1001F00001000100010001000100000001000100F8
:1002000001000100010001000100010001000100E6
:1002100001000100010001000100010001000100D6
:1002200001000100010001000100010001000100C6
:1002300000000100010001000100000000000100B9
:1002400000000000000000000100010001000100AA
:100250000100010001000100010001000100010096
:100260000100010001000100010001000100010086
:100270000100010001000100010001000100010076
:100280000100010001000000010001000100010067
:100290000100010001000100010001000100010056
:1002A0000100010001000100010001000100010046
:1002B0000100010001000100010001000000010037
:1002C000010001000100000000000100000000002A
:1002D0000000000001000100010001000100010018
:1002E0000100010001000100010001000100010006
:1002F00001000100010001000100010001000100F6
:1003000001000100010001000100010001000100E5
:1003100001000000010001000100010001000100D6
:1003200001000100010001000100010001000100C5
:1003300001000100010001000100010001000100B5
:1003400001000100010001000000010001000100A6
:10035000010000000000010000000000000000009B
:100360000100010001000100010001000100010085
:100370000100010001000100010001000100010075
:100380000100010001000100010001000100010065
:100390000100010001000100010001000100000056
:1003A0000100010001000100010001000100010045
:1003B0000100010001000100010001000100010035
:1003C0000100010001000100010001000100010025
:1003D0000100010000000100010001000100000017
:1003E000000001000000000000000000010001000A
:1003F00001000100010001000100010001000100F5
:1004000001000100010001000100010001000100E4
:1004100001000100010001000100010001000100D4
:1004200001000100010001000100000001000100C5
:1004300001000100010001000100010001000100B4
:1004400001000100010001000100010001000100A4
:100450000100010001000100010001000100010094
:100460000000010001000100010000000000010087
:100470000000000000000000010001000100010078
:100480000100010001000100010001000100010064
:100490000100010001000100010001000100010054
:1004A0000100010001000100010001000100010044
:1004B0000100010001000000010001000100010035
:1004C0000100010001000100010001000100010024
:1004D0000100010001000100010001000100010014
:1004E0000100010001000100010001000000010005
:1004F00001000100010000000000010000000000F8
:1005000000000000010001000100010001000100E5
:1005100001000100010001000100010001000100D3
:1005200001000100010001000100010001000100C3
:1005300001000100010001000100010001000100B3
:1005400001000000010001000100010001000100A4
:100550000100010001000100010001000100010093
:100560000100010001000100010001000100010083
:100570000100010001000100000001000100010074
:100580000100000000000100000000000000000069
:100590000100010001000100010001000100010053
:1005A0000100010001000100010001000100010043
:1005B0000100010001000100010001000100010033
:1005C0000100010001000100010001000100000024
:1005D0000100010001000100010001000100010013
:1005E0000100010001000100010001000100010003
:1005F00001000100010001000100010001000100F3
:1006000001000100000001000100010001000000E4
:1006100000000100000000000000000001000100D7
:1006200001000100010001000100010001000100C2
:1006300001000100010001000100010001000100B2
:1006400001000100010001000100010001000100A2
:100650000100010001000100010000000100010093
:100660000100010001000100010001000100010082
:100670000100010001000100010001000100010072
:100680000100010001000100010001000100010062
:100690000000010001000100010000000000010055
:1006A0000000000000000000010001000100010046
:1006B0000100010001000100010001000100010032
:1006C0000100010001000100010001000100010022
:1006D0000100010001000100010001000100010012
:1006E0000100010001000000010001000100010003
:1006F00001000100010001000100010001000100F2
:1007000001000100010001000100010001000100E1
:1007100001000100010001000100010000000100D2
:1007200001000100010000000000010000000000C5
:1007300000000000010001000100010001000100B3
:1007400001000100010001000100010001000100A1
:100750000100010001000100010001000100010091
:100760000100010001000100010001000100010081
:100770000100000001000100010001000100010072
:100780000100010001000100010001000100010061
:100790000100010001000100010001000100010051
:1007A0000100010001000100000001000100010042
:1007B0000100000000000100000000000000000037
:1007C0000100010001000100010001000100010021
:1007D0000100010001000100010001000100010011
:1007E0000100010001000100010001000100010001
:1007F00001000100010001000100010001000000F2
:1008000001000100010001000100010001000100E0
:1008100001000100010001000100010001000100D0
:1008200001000100010001000100010001000100C0
:1008300001000100000001000100010001000000B2
:1008400000000100000000000000000001000100A5
:100850000100010001000100010001000100010090
:100860000100010001000100010001000100010080
:100870000100010001000100010001000100010070
:100880000100010001000100010000000100010061
:100890000100010001000100010001000100010050
:1008A0000100010001000100010001000100010040
:1008B0000100010001000100010001000100010030
:1008C0000000010001000100010000000000010023
:1008D0000000000000000000010001000100010014
:1008E0000100010001000100010001000100010000
:1008F00001000100010001000100010001000100F0
:1009000001000100010001000100010001000100DF
:1009100001000100010000000100010001000100D0
:1009200001000100010001000100010001000100BF
:1009300001000100010001000100010001000100AF
:1009400001000100010001000100010000000100A0
:100950000100010001000000000001000000000093
:1009600000000000010001000100010012036B0003
:100970006500790062006F00610072006400000091
:10098000160371006D006B006200750069006C0059
:1009900064006500720000000403090409026D0090
:1009A000040100A0FA09040000010301010009216B
:1009B000110100012240000705810308000A090413
:1009C00001000103010200092111010001224D0073
:1009D0000705820308000A09040200010300000061
:1009E0000921110100012236000705830308000ACE
:1009F0000904030001030000000921110100012284
:100A000039000705840320000112011001000000D5
:100A100008EDFE606001000102000105010906A168
:100A200001050719E029E7150025019508750181E1
:100A300002050819012905950575019102950175B1
:100A40000391010507190029F71500250195F8758F
:100A5000018102C005010980A1018502160100265D
:100A600003001A81002A8300751095018100C005DA
:100A70000C0901A1018503160100269C021A010040
:100A80002A9C02751095018100C005010902A1018F
:100A90000901A10005091901290515002501950580
:100AA0007501810295017503810105010930093144
:100AB0001581257F95027508810609381581257FE6
:100AC000950175088106050C0A38021581257F9568
:100AD0000175088106C0C005010906A101050719B5
:100AE000E029E7150025019508750181029501753A
:100AF00008810105081901290595057501910295DF
:100B000001750391010507190029FF150026FF0053
:100B1000950675088100C00011241FBECFEFDAE0F2
:100B2000DEBFCDBF04B603FE27C08091480290917E
:100B30004902A0914A02B0914B028730904BA740E6
:100B4000B04BD1F4109248021092490210924A021E
:100B500010924B0214BE84B7877F84BF0FB6F894FF
:100B6000A895809160008861809360001092600079
:100B70000FBEE0E0F8E3099511E0A0E0B1E0ECEE93
:100B8000F9E402C005900D92AA33B107D9F722E02B
:100B9000AAE3B1E001C01D92A834B207E1F70E94B8
:100BA0002E1E0C94F4240C94000080E090E0089534
:100BB0000895089581E0089581FF03C0229A2A983C
:100BC00008952298FCCF81E008950C94DA050E94E4
:100BD000E70F2FEF84E39CE0215080409040E1F745
:100BE00000C000000C942118FF920F931F93CF9325
:100BF000DF938C01FC01C081D1818091740181114E
:100C000027C082818823F9F0CE010E946315F82E57
:100C1000682FCE010E940E15BE018F2D0E945B072A
:100C2000EC01B8010E94E505882331F0B801CE013E
:100C30000E948C098111C2C080E0DF91CF911F9189
:100C40000F91FF900895CE010E943815F82EE4CF41
:100C5000CE010E946315BE01E1CFF8018281882395
:100C600059F30E94E705E8CFF8018281882321F338
:100C700080910702816080930702DECFF8018281B4
:100C8000882309F4B2C00E941617811102C00E9485
:100C9000F7160E94331790E0909339028093380240
:100CA000FE01E350F047E231F105C0F4E45AF94F98
:100CB000809138020C94A4247A067C0687067E066E
:100CC000800682068406860689068B068D069806AF
:100CD0008F0691069306950697069A06809138022C
:100CE000816080933802809138020E9437170E94F9
:100CF000E70FA2CF8260F5CF8460F3CF8061F1CFA0
:100D00008062EFCF8064EDCF8068EBCF8460886035
:100D1000E8CF8E7FE6CF8D7FE4CF8B7FE2CF8F7ED3
:100D2000E0CF8F7DDECF8F7BDCCF8F77DACF8B7FED
:100D3000877FD7CF87FB992790F921E0922790FBF7
:100D400087F9CFCFF8018281882361F010923C01AE
:100D50000E94C61790933B0180933A0182E00E9463
:100D6000510D6ACF80913C0181110FC080913A01F1
:100D700090913B010E94D217883C910530F486E2A5
:100D80000E94260C86E20E94020D82E00E94580D0D
:100D900053CF80913D0181110FC080913A01909114
:100DA0003B010E94D217883C910530F487E20E94F3
:100DB000260C87E20E94020D80E2E8CFC531F0E701
:100DC000DF07D8F4C23080E7D80708F057CFC11545
:100DD000E0E7DE0709F441CFC130D04709F444CF42
:100DE00081E080933C0180933D01C801DF91CF9168
:100DF0001F910F91FF900C94E305CC3380E7D80747
:100E000009F4A0CFCD33D04759F7F8018281882368
:100E100009F4BFCF10923D010E94C61790933B0189
:100E200080933A0180E29BCF0C94DD09269A2E989C
:100E30008FEF9FEF909387008093860082E28093EC
:100E4000800089E1809381000C94DD1B0E941607CD
:100E50000C94DB09282F2E9880918000211108C066
:100E60008F7D8093800010928B0010928A000895ED
:100E7000806280938000233039F48FEF9FEF90934E
:100E80008B0080938A00089583E090E0821B910993
:100E9000880F991F2FEF3FEF02C0369527958A954F
:100EA000E2F730938B0020938A0008950C94DC05C0
:100EB0000C9456070895972F70E02EE0929F600DD6
:100EC000711D1124FB0196E4899FE00DF11D112491
:100ED000EE0FFF1FE455FF4F859194910895FC019B
:100EE000EE0FFF1FE459F64F8591949108950E94EB
:100EF0005B070E940A09811520E5920708F040C0AF
:100F0000811530E4930708F0F9C0883E910518F583
:100F1000803E910508F07DC1883A910580F4853ABC
:100F2000910508F086C08130910509F472C120F066
:100F30008430910508F06DC180E090E008958D3B0C
:100F4000910508F481C0803C9105B0F3805C910963
:100F50000E946F070895811540E2940750F48115AF
:100F600021E0920708F055C1803F910528F3906574
:100F70000895811530E3930708F0BDC09F70E8CF56
:100F8000811545E5940760F5811524E5920708F081
:100F9000E4C0811532E5930750F4811541E59407CB
:100FA00008F4AFC0982F8827816F906A0895282F82
:100FB00026952695AC01437055278115934508F079
:100FC000BDC081E090E002C0880F991F4A95E2F70A
:100FD00040E2249F90011124822B932B9C6808955A
:100FE000803340E7940790F4803220E7920708F0BE
:100FF000BFC0811536E5930708F4B4C09C01305694
:101000002115304108F098CF9F70B0C0813320E7A0
:10101000920709F4B4C008F4AFC0823340E79407E4
:1010200009F4B0C08333904709F086CF80E093ED98
:101030000895853A910509F4A8C0863A910509F00A
:10104000A7C082E890E40895883A910509F4A3C006
:10105000893A910509F4A2C08A3A910509F4A1C020
:101060008B3A910509F4A0C08C3A910509F49FC010
:101070008B3B910509F49EC08C3B910509F49DC002
:101080008D3A910509F49CC0803B910509F49BC001
:101090008E3A910509F49AC08F3A910509F499C0E6
:1010A000813B910509F498C0823B910509F497C0F2
:1010B000833B910509F496C0843B910509F495C0E2
:1010C000853B910509F494C0863B910509F493C0D2
:1010D000873B910509F492C0883B910509F491C0C2
:1010E000893B910509F490C08A3B910509F48FC0B2
:1010F00080E094E408959927906C08959F70906A19
:1011000008959C0154E0369527955A95E1F7922F62
:101110009370482F437021E030E002C0220F331F4C
:101120004A95E2F73C68392B86958695837040E2B4
:10113000849FC0011124822B932B089581E090E0BD
:1011400002C0880F991F4A95E2F740E2249F900160
:101150001124822B932B9A680895982F8827846FE7
:10116000906A0895982F882788279F719062089524
:1011700080529047946D089580E091ED089580E04D
:1011800090ED089580E092ED089581E890E408954F
:1011900083E890E4089582EE94E4089589EE94E45F
:1011A00008958AEE94E4089585EB94E4089586EB1F
:1011B00094E4089583EB94E4089584EB94E4089513
:1011C00087EB94E408958CEC94E408958DEC94E41A
:1011D000089583E895E408958AE895E4089582E9FE
:1011E00095E4089584E995E4089581E296E40895EC
:1011F00083E296E4089584E296E4089585E296E415
:10120000089586E296E4089587E296E408958AE2D6
:1012100096E408958238910549F1B0F4813391053F
:1012200009F45AC048F48932910509F450C08A3251
:10123000910509F456C008958533910509F442C01B
:101240008933910599F00895833E910521F138F491
:10125000803E910581F0823E9105A1F00895863E81
:10126000910501F1873E910531F1089520913802F1
:101270002370E1F508952091380220FF12C089E320
:1012800090E008952091380222FF0BC024FF31C066
:1012900080E090E008952091380222FD2DC024FDC9
:1012A000F7CF08952091380223FFFBCF24FDF0CF24
:1012B00087EE90E008952091380223FFF0CF86EE6C
:1012C00090E008952091380225FD19C008952091DD
:1012D000380225FD17C008952091380226FD15C05B
:1012E00008952091380226FD13C0089580EE90E005
:1012F000089583EE90E0089582EE90E0089589E2EB
:1013000090E0089585E390E008958AE290E00895E2
:1013100081E390E0C6CF08950F931F93CF938C0184
:10132000FB018281811106C0C1E08C2FCF911F91FA
:101330000F910895C0914B01C11125C0053110478F
:1013400099F70E948B0981E080934B010E94C61798
:1013500090934A018093490110923E0110924001FE
:1013600010923F01109242011092410110924401EB
:1013700010924301109246011092450110924801CB
:1013800010924701D2CF8091490190914A010E9469
:10139000D217883C910540F680913E01E82FF0E09D
:1013A000EE0FFF1FE15CFE4F118300838F5F809380
:1013B0003E01C0E0BACF0C94D8050C94D90585B78E
:1013C000806885BF85B7806885BFA1E2B1E061E034
:1013D00070E08D91E82FE295EF70F0E041A18F7001
:1013E0009B0101C0220F8A95EAF7922F90959423D2
:1013F00091A382A1822B82A381E0A632B80749F78C
:10140000A3E1B1E061E070E08D91E82FE295EF702B
:10141000F0E041A18F709B0101C0220F8A95EAF78D
:10142000922F9095942391A382A1822B82A381E095
:10143000A132B80749F7E6E5F1E0ACE4B1E080E6B7
:1014400091E0119211921D921D928E179F07C9F77C
:101450000C9426074F925F927F928F929F92AF9249
:10146000BF92CF92DF92EF92FF920F931F93CF9391
:10147000DF930CE411E091E2C92E91E0D92EE8014E
:10148000EE24E394F12C99249394A880B9801982D6
:101490001882D6018D916D01E82FE295EF70F0E092
:1014A00091A18F70970101C0220F8A95EAF7892FC9
:1014B000822B81A382A1822E8094882182A3B0EA0C
:1014C000BA95F1F783E1482E81E0582E80E090E054
:1014D000D2017D912D01472F42954F7050E0DA01E6
:1014E00090967C90488159817F70D70102C0AA0FE5
:1014F000BB1F7A95E2F7BD01672109F055C0B7011E
:10150000082E02C0660F771F0A94E2F7462B572B6E
:101510005983488301968E309105D1F681A18822A6
:1015200081A282A1282B22A388819981A816B906BD
:1015300041F0909260010E94C617909362018093DF
:1015400061012296B1E0C635DB0709F09ECF80919C
:1015500060018823B1F080916101909162010E9445
:10156000D217069770F0E6E5F1E0D8018D919D91D4
:101570008D0181939193B1E006351B07B1F710926D
:1015800060010E94140781E0DF91CF911F910F91BC
:10159000FF90EF90DF90CF90BF90AF909F908F9093
:1015A0007F905F904F90089560E070E0AFCFE82F9C
:1015B000F0E0EE0FFF1FEA5AFE4F808191810895FF
:1015C000089590936801809367010895E091670101
:1015D000F0916801309721F00190F081E02D09949D
:1015E00080E00895E0916701F0916801309721F063
:1015F0000280F381E02D09940895E0916701F09154
:101600006801309721F00480F581E02D0994089558
:1016100020916501309166012817390771F0909388
:10162000660180936501E0916701F0916801309750
:1016300021F00680F781E02D09940895209163013F
:10164000309164012817390771F0909364018093F9
:101650006301E0916701F0916801309721F0008407
:10166000F185E02D0994089508950C94340B0E949F
:10167000BD170E94DF090E948E180C94DD1B5F923B
:101680006F927F928F929F92AF92BF92CF92DF9292
:10169000EF92FF920F931F93CF93DF93CDB7DEB7F7
:1016A0002A970FB6F894DEBF0FBECDBF0E942A0A5C
:1016B0009AE6A92E91E0B92E00E010E088248394E8
:1016C000912C502E802F0E94D70A7C01F501C190E9
:1016D000D1905F018C159D05B1F40F5F1F4F053050
:1016E000110579F78FEF89838A831B820E94C617C1
:1016F0008160782F9D838C8349815A816B818D8194
:101700000E94F80B36C08091070281FD0E94E00A1A
:1017100080E090E0CE24DF243401082E02C0660C65
:10172000771C0A94E2F7960126213721232B09F42E
:1017300043C08E835F82E620F72081E0EF2809F422
:1017400080E088870E94C6178160782F9A878987F2
:101750004E815F8168858A850E94F80B000F111FFA
:10176000F801E659FE4F80819181682679267182C1
:1017700060820E942E1B0E94E60A909169018917DF
:1017800009F10E94E60A809369012A960FB6F8943F
:10179000DEBF0FBECDBFDF91CF911F910F91FF90A4
:1017A000EF90DF90CF90BF90AF909F908F907F9001
:1017B0006F905F900C94580701968E30910509F058
:1017C000ABCF8BCF2A960FB6F894DEBF0FBECDBF3E
:1017D000DF91CF911F910F91FF90EF90DF90CF900D
:1017E000BF90AF909F908F907F906F905F90089583
:1017F000CF93DF93CDB7DEB72B970FB6F894DEBF4C
:101800000FBECDBF4F83588769877A878B87DE01EC
:10181000119686E0FD0111928A95E9F785E0FE01B7
:10182000379601900D928A95E1F749815A816B8133
:101830007C818D819E810E94B0122B960FB6F89408
:10184000DEBF0FBECDBFDF91CF910895882309F48D
:10185000D8C0823871F40E94E60A81FDD2C089E3C3
:101860000E9404160E94C81689E30E9440160C9438
:10187000C816833859F40E94E60A80FDC2C083E589
:101880000E9404160E94C81683E5EFCF843859F4ED
:101890000E94E60A82FDB5C087E40E9404160E94F9
:1018A000C81687E4E2CF9CEF980F913A18F40E9493
:1018B0000416DDCF90E2980F983050F4877091E0D5
:1018C00001C0990F8A95EAF7892F0E947F16CFCF22
:1018D0009BE5980F933070F4853A31F0863A39F0F1
:1018E00083E890E00C94080B81E890E0FBCF82E85D
:1018F00090E0F8CF98E5980F953108F082C0883ACB
:1019000009F440C0893A09F440C08A3A09F440C059
:101910008B3A09F440C08C3A09F440C08B3B09F47F
:1019200040C08C3B09F440C08D3A09F440C0803B74
:1019300009F440C08E3A09F440C08F3A09F440C01F
:10194000813B09F440C0823B09F440C0833B09F469
:1019500040C0843B09F440C0853B09F440C0863B4D
:1019600009F440C0873B09F440C0883B09F440C0FB
:10197000893B09F440C08A3B09F440C080E090E014
:101980000C941E0B82EE90E0FBCF89EE90E0F8CF36
:101990008AEE90E0F5CF85EB90E0F2CF86EB90E019
:1019A000EFCF83EB90E0ECCF84EB90E0E9CF87EBD7
:1019B00090E0E6CF8CEC90E0E3CF8DEC90E0E0CFD0
:1019C00083E891E0DDCF8AE891E0DACF82E991E027
:1019D000D7CF84E991E0D4CF81E292E0D1CF83E206
:1019E00092E0CECF84E292E0CBCF85E292E0C8CF06
:1019F00086E292E0C5CF87E292E0C2CF8AE292E02F
:101A0000BFCF0895882309F44BC0823871F40E9437
:101A1000E60A81FF45C089E30E9404160E94C816A9
:101A200089E30E9440160C94C816833859F40E942A
:101A3000E60A80FF35C083E50E9404160E94C8169E
:101A400083E5EFCF843859F40E94E60A82FF28C06C
:101A500087E40E9404160E94C81687E4E2CF9CEF38
:101A6000980F913AF0F290E2980F983050F4877006
:101A700091E001C0990F8A95EAF7892F0E94851697
:101A8000D2CF9BE5980F933020F480E090E00C9447
:101A9000080B885A853120F480E090E00C941E0BEE
:101AA0000895882321F00E947F160C94C81608958B
:101AB000882321F00E9485160C94C81608958F92F1
:101AC0009F92AF92BF92DF92EF92FF920F931F937C
:101AD000CF93DF937C01D62FC72FFC0105810295A0
:101AE0000F70128111110E949E160E94FD15D82EB2
:101AF000882371F0112331F180E28D0F883010F1CD
:101B000082E00E94E6150E94FD1591E0D82ED926AC
:101B1000EC2FE295EF708E2F90E0FC01EE56F24F25
:101B20000C94A424A40DA40DF50DF50D340E520E45
:101B3000D20DD20D5D0ED20DF80EF80E6A0F730F96
:101B4000D20D930FD12CE4CF8C2F807FCF708823C0
:101B500011F0C295C07F1123A9F0CC2359F080E287
:101B60008D0F883010F0D11109C08C2F0E947F1684
:101B70000E94C8168D2F0E94260C14C08C2F0E9424
:101B80009016F6CF8D2F0E94020DCC2359F080E2E3
:101B90008D0F883010F0D11124C08C2F0E94851633
:101BA0000E94C816DD2009F4C5C10E94D91580FD28
:101BB000C1C1F70112820E94D3150E945214C701BD
:101BC0000E94A60F0E94D315DF91CF911F910F9114
:101BD000FF90EF90DF90BF90AF909F908F900C940C
:101BE00073148C2F0E949616DBCF8C2F807FCF70C2
:101BF000803211F0C295C07FDD2369F0D13021F130
:101C0000112361F1002359F0F701858180FFB2CFE4
:101C10008F70858304C0112361F0011104C08C2FE3
:101C20000E94510DBFCF8C2F0130D1F70E94B21608
:101C3000B9CF011106C00E94B5168C2F0E94580D15
:101C4000B1CF0130C1F7AECF112321F0063008F03B
:101C5000A9CFE5CF053008F0A5CFEFCF002369F37A
:101C60008D2F0E94020D9ECF8C2F869586958370B6
:101C700059F0813009F096CF112389F08D2F9C2FD8
:101C800093700E941E0B8ECF112331F08D2F9C2F4D
:101C900093700E94080B86CF80E090E0FACF80E03E
:101CA00090E0EFCF8D2F112329F00E94371A0E9468
:101CB000231B78CF0E949F1AFACF8C2F837009F0D4
:101CC00048C011116FCF2D2F229526952770220F16
:101CD000220F6D2F6F70862E912CA12CB12C022E0D
:101CE00004C0880C991CAA1CBB1C0A94D2F7D4FF10
:101CF0001EC06FE070E080E090E004C0660F771FC8
:101D0000881F991F2A95D2F76095709580959095B8
:101D1000C695C695C370C23071F0A0F468297929C0
:101D20008A299B29C13091F00E94FB133BCF60E0D0
:101D300070E0CB01EDCF682979298A299B290E947F
:101D4000171430CF0E94FB13C501B4010E94DF13AA
:101D500029CF1123C9F18C2F8170882309F422CF58
:101D60002D2F229526952770220F220F6D2F6F7031
:101D7000862E912CA12CB12C022E04C0880C991C0B
:101D8000AA1CBB1C0A94D2F7D4FF20C06FE070E0FD
:101D900080E090E004C0660F771F881F991F2A9586
:101DA000D2F76095709580959095C695C695C3704D
:101DB000C23081F0B0F4682979298A299B29C13081
:101DC000A1F00E94D514EECE8695C7CF60E070E0FA
:101DD000CB01EBCF682979298A299B290E94F1142C
:101DE000E1CE0E94D514C501B4010E94B914DACE27
:101DF0008D2F90E0FC01E05EF109E531F10508F07E
:101E000061C0EB5FF04F0C94A4241A0F1A0F1A0F45
:101E10001A0F1A0F1A0F1A0F1A0F1A0F1A0F1A0F7A
:101E20001A0F1A0F1A0F1A0F1A0F270F350F3C0F20
:101E3000430F4D0FDF708C2F8F71112321F00E9403
:101E400052148D2FEDCE0E9473148D2FF7CE1123D7
:101E500041F0053008F0A6CE8C2F8F710E949814A7
:101E6000A1CE063008F09ECEF7CF112339F08C2F8B
:101E70008F710E94521496CE1123C9F38C2F8F714B
:101E80000E9473148FCE112329F08C2F8F710E9422
:101E90003D1488CE0E94331485CE112349F0CF71B2
:101EA0008C2F0E94521463E08C2F0E94DD157ACE95
:101EB00081E00E94E615023008F474CE82E00E94B0
:101EC000E61570CE112319F0002389F253CE0023BA
:101ED000A9F2C6CE4C2F4F706D2FC7010E94D505B9
:101EE0000E9459135FCE11115DCECF70C230A9F0A0
:101EF00040F4CC2379F0C13009F054CE0E94091C83
:101F000051CEC33069F0C43009F04CCE8D2F0E9401
:101F10005B1C48CE0E94EE1B45CE0E94251C42CE83
:101F20000E94381C3FCE4C2F4F706D2FC7010E946E
:101F30005A0738CEDF91CF911F910F91FF90EF900C
:101F4000DF90BF90AF909F908F9008950F931F9355
:101F5000CF93DF93EC01988189812B813C81232BE6
:101F600039F08F3F19F481E09F3F19F080E001C004
:101F700081E080FD13C0CE010E94F405882371F03A
:101F8000688179818A810E94B0158C010E940D15AB
:101F90000E94D413B801CE010E945F0DDF91CF9152
:101FA0001F910F9108950E949E160E94AF160E94E5
:101FB00071160E94C8160E94D11B0E94231B80E04C
:101FC00090E00E94080B80E090E00C941E0B0E94B1
:101FD0008D160C94D30F0E94A515E92FE295EF7092
:101FE0004E2F50E0FA013297EE30F105D8F4E5506B
:101FF000F04F0C94A42409100910121012101410A0
:1020000012101210121009100910191012101210CB
:102010001910803F19F020F4803E20F481E00895EB
:10202000843FE1F380E00895803EC0F3813FD1F723
:10203000F5CF93FB882780F90895CF93DF9300D0E5
:1020400000D01F92CDB7DEB70F900F900F900F907A
:102050000F90DF91CF910895CF93DF9300D000D000
:1020600000D0CDB7DEB726960FB6F894DEBF0FBE10
:10207000CDBFDF91CF9108951F93CF93DF93C09190
:10208000750116E080917601C81304C0DF91CF91ED
:102090001F910895D0E01C9FF0011D9FF00D1124A9
:1020A000E958FE4F4081518162817381848195811D
:1020B0000E942C102196C770E5CF4091A701509146
:1020C000A8016091A9017091AA018091AB01909142
:1020D000AC010C942C101F93CF93DF938091AC0133
:1020E00082958F70D1F48091A9018823B1F08091FD
:1020F0007501D0917601B091A701C091A8014091DE
:10210000AA015091AB01A1E0BF3F09F0A0E0BA01E4
:102110006095709516E08D1304C0DF91CF911F91EB
:10212000089541155105D9F1CF3FD9F120E090E054
:1021300020FD3CC0189FF001199FF00D1124E958B3
:10214000FE4F21812C1332C020812B132FC02281FE
:1021500021112CC0238134812417350720F1241B41
:10216000350B283C310510F52091AC012F70206112
:102170002093AC0126E0289FF001299FF00D112447
:10218000E458FE4F80818F708061808387EA91E000
:102190000E94A60FDF91CF911F910C943C1021E07B
:1021A000C6CF2A2FC4CF260F371FDBCF01968770EB
:1021B000B2CFAF92BF92CF92DF92EF92FF920F9386
:1021C0001F93CF93DF93CDB7DEB761970FB6F89427
:1021D000DEBF0FBECDBF8C0185E0F801DE011D968C
:1021E00001900D928A95E1F7D8014C9111965C917E
:1021F00011971296EC903091A7016091A8018091FF
:10220000AA019091AB01009739F06F3F19F421E0DA
:102210003F3F19F020E001C021E0B22FB170BB2E8A
:1022200020FD90C1F801C380D480A090A901AA200C
:1022300009F432C12091AC01C816D90610F1D601BB
:10224000A81BB90BCD01FF24F394883C9105F0F055
:10225000F12C207F09F0E9C07C2DD98AC88A6E2D27
:1022600089890E941D1087EA91E00E94A60FE7EA83
:10227000F1E086E0DF011D928A95E9F70E945D108A
:102280001EC0809590958C0D9D1DDDCF822F807F87
:1022900009F084C0651325C0341323C0FE2CE1105F
:1022A00020C02F7020612093AC010E945D1087EA4E
:1022B00091E00E94A60F8091AC01F80185838F2DDB
:1022C00061960FB6F894DEBF0FBECDBFDF91CF9100
:1022D0001F910F91FF90EF90DF90CF90BF90AF9044
:1022E0000895CD2839F05F3F19F481E04F3F19F090
:1022F00080E001C081E080FD24C081E08E25F82FC0
:10230000F170FF2E80FF3FC0809175012091760112
:1023100036E0821318C04D875E878D859E850E94AA
:10232000A515292F22952F70223008F1243030F581
:102330009F7009F1D80115969C91907FE1F4FB2CD8
:10234000BECF80E0DCCF90E0389FF001399FF00DE8
:102350001124E958FE4F6181561306C06081641351
:1023600003C06281E6120FC001968770D2CF9F70C2
:1023700011F0882321F3805E883008F3C8010E94A1
:10238000A60FBF2CDCCFFE2CEE2009F498CF809155
:10239000AC0181608093AC01F12C91CF651314C026
:1023A000341312C0E11010C08091AC01F801858394
:1023B000C8010E94A60F86E0F801A7EAB1E00190EB
:1023C0000D928A95E1F75ACF4D875E878D859E8560
:1023D0000E94EB0F882309F4BFC0EE2009F4BCC0B3
:1023E0002091AC01822F82958F7090E0029774F05B
:1023F0008091A7019091A80198878F831986DB8629
:10240000CA862C87CE0107960E94A60F86E0F801A7
:10241000A7EAB1E001900D928A95E1F70E946B1056
:102420000E945D10FF24F3944ACF651314C0341347
:1024300012C0E11010C08091AC01F8018583C80181
:102440000E94A60F86E0E7EAF1E0DF011D928A957F
:10245000E9F7FA2C34CF4D875E878D859E850E94E3
:10246000EB0F882309F478C0EE2009F475C02091A1
:10247000AC01822F82958F7090E002973CF28091A0
:10248000A7019091A8019A8389831B82DD82CC8267
:102490002E83CE010196B8CFC816D90680F0F6017A
:1024A000E81BF90BCF01883C910570F0F12C7C2DD5
:1024B000D98AC88A6E2D89890E941D10D8CE809530
:1024C00090958C0D9D1DEFCFFE2CEE2009F444C09D
:1024D000651327C0341325C08091AC0180FD18C05E
:1024E000982F92959F70292F30E02115310581F0AA
:1024F000D80115968C9315972F30310509F458CFD4
:102500009F5F9295907F8F70892B15968C9350CFFB
:1025100086E0F801A7EAB1E001900D928A95E1F713
:10252000CECE4D875E878D859E850E94EB0F8111F3
:102530006DCF8091AC0181608093AC01C8010E9495
:10254000A60FBDCEEE2041F04D875E878D859E851E
:102550000E94EB0F81115ACFC8010E94A60F62CFD3
:102560001F93CF93DF93CDB7DEB72C970FB6F894B8
:10257000DEBF0FBECDBF4F83588769877A878B87B1
:102580009C87CE0107960E94D910882349F19F812C
:1025900088852A853B85232B39F08F3F19F481E00C
:1025A0009F3F19F080E001C081E080FD08C04F81AD
:1025B000588569857A858B859C850E942C1016E04C
:1025C0008091750190917601891343C02C960FB6C6
:1025D000F894DEBF0FBECDBFDF91CF911F9108955C
:1025E00086E0FE013796DE01119601900D928A95E4
:1025F000E1F79F8188852A853B85232B39F08F3F22
:1026000019F481E09F3F19F080E001C081E080FD76
:10261000D6CF2091760130E0C901019687709927C5
:102620004091750150E084179507A9F196E0929FBB
:10263000D001939FB00D1124A958BE4FFE013196D1
:1026400001900D929A95E1F7809376010E943C10DB
:10265000B6CF819FC001112489589E4F0E94D91086
:10266000882309F4B3CFE09175011E9FF001112476
:10267000E958FE4F40815181628173818481958147
:102680000E942C108091750190E001968770992727
:102690008093750195CF0E94E70F109276011092FA
:1026A0007501E7EAF1E086E0DF011D928A95E9F71E
:1026B0008DCFEF92FF920F931F93CF93DF938C01F7
:1026C000892B81F0F12CEE24E394E8012196F801A6
:1026D0008491843770F4843008F062C08130B1F0A6
:1026E0008230B1F1DF91CF911F910F91FF90EF9068
:1026F0000895853709F44FC008F43FC09CE7980F50
:10270000903780F78F770E94020D4CC00E5F1F4FED
:10271000FE01849190E2980F983060F48770FE2D4E
:1027200001C0FF0F8A95EAF78F2F0E94A1160E9421
:10273000C81602C00E94260C8F2D882309F4C5CF2D
:10274000EFE9FFE03197F1F700C000008150F5CFCD
:102750000E5F1F4FFE01849190E2980F983050F465
:102760008770FE2D01C0FF0F8A95EAF78F2F0E9418
:10277000A716DDCF0E94020DDFCF0E5F1F4FFE01B7
:10278000C491CC23C9F28FE99FE00197F1F700C013
:102790000000C150F6CF0E5F1F4FFE01F490CCCF6A
:1027A0000E94260C8E01C8CF08956093DE017093BD
:1027B000DF018093E0019093E1010C94D30F0F931C
:1027C0001F930091DE011091DF012091E001309113
:1027D000E101DC01CB01802B912BA22BB32B809349
:1027E000DE019093DF01A093E001B093E1011F911E
:1027F0000F910C94D30F0F931F930091DE01109152
:10280000DF012091E0013091E101DC01CB01802367
:102810009123A223B3238093DE019093DF01A09341
:10282000E001B093E1011F910F910C94D30F0F932E
:102830001F930091DE011091DF012091E0013091A2
:10284000E101DC01CB0180279127A227B3278093E8
:10285000DE019093DF01A093E001B093E1011F91AD
:102860000F910C94D30F1092DA011092DB011092A9
:10287000DC011092DD010C94D30F41E050E060E0E8
:1028800070E004C0440F551F661F771F8A95D2F76A
:102890004093DA015093DB016093DC017093DD011A
:1028A0000C94D30F41E050E060E070E004C0440FAE
:1028B000551F661F771F8A95D2F78091DA01909194
:1028C000DB01A091DC01B091DD01842B952BA62BBF
:1028D000B72B8093DA019093DB01A093DC01B093D6
:1028E000DD010C94D30F41E050E060E070E004C0E3
:1028F000440F551F661F771F8A95D2F74095509554
:10290000609570958091DA019091DB01A091DC01D6
:10291000B091DD0184239523A623B7238093DA01A8
:102920009093DB01A093DC01B093DD010C94D30FF5
:1029300041E050E060E070E004C0440F551F661FA6
:10294000771F8A95D2F78091DA019091DB01A091EF
:10295000DC01B091DD0184279527A627B727809356
:10296000DA019093DB01A093DC01B093DD010C94BC
:10297000D30F0F931F930091DA011091DB01209187
:10298000DC013091DD01DC01CB01802B912BA22BEE
:10299000B32B8093DA019093DB01A093DC01B09319
:1029A000DD011F910F910C94D30F0F931F93009192
:1029B000DA011091DB012091DC013091DD01DC01B5
:1029C000CB0180239123A223B3238093DA01909338
:1029D000DB01A093DC01B093DD011F910F910C94FA
:1029E000D30F0F931F930091DA011091DB01209117
:1029F000DC013091DD01DC01CB0180279127A2278A
:102A0000B3278093DA019093DB01A093DC01B093AC
:102A1000DD011F910F910C94D30F08952EE0929F2A
:102A2000800D1124982F977041E001C0440F9A95B2
:102A3000EAF786958695869595E0899FF0011124A1
:102A4000E355FE4F80E090E070E050819B01082E3E
:102A500002C0369527950A94E2F721702195252723
:102A600024232527219301968530910571F7089538
:102A70002EE0929F800D1124982F97708695869551
:102A8000869525E0829FA001112460E070E080E03F
:102A9000FA01E60FF71FE355FE4F208130E0092EC3
:102AA00002C0369527950A94E2F721703327062E47
:102AB00001C0220F0A94EAF7822B6F5F7F4F6530C7
:102AC000710531F70895BF92CF92DF92EF92FF9296
:102AD0000F931F93CF93DF938C01C090DA01D090B6
:102AE000DB01E090DC01F090DD018091DE0190914E
:102AF000DF01A091E001B091E101C82AD92AEA2AB8
:102B0000FB2ACFE1D0E0BC2ED701C6010C2E04C0B9
:102B1000B695A795979587950A94D2F780FD0EC034
:102B2000219788F7B12C8B2DDF91CF911F910F91B9
:102B3000FF90EF90DF90CF90BF900895B8018C2F59
:102B40000E947707019761F3EECFCF93DF93EC01FB
:102B50000E946315BE010E947707DF91CF9108950F
:102B60001F93CF93DF93EB0190917401992339F078
:102B7000CB010E94A515DF91CF911F910895882365
:102B800069F0CB010E946315182F682FCE010E94B7
:102B90000E15BE01812F0E947707EDCFCB010E9459
:102BA0003815182FF6CF8091E2018595859585958A
:102BB00008958091E2018770089598E0899F9001BF
:102BC0001124622B6093E2010C9452142091E201D3
:102BD000809582238093E201982F977069F430E00A
:102BE000482F082E000C550B2417350729F0859522
:102BF000859585950C94731408959091E2019770D2
:102C000081E009F480E00895909112019923D9F0B0
:102C10009091380297FF17C0982F969596959695A4
:102C20009F3131F1E0910001F0910101E90FF11DB7
:102C3000877021E030E001C0220F8A95EAF7818198
:102C4000822B818308952091000130910101F901C7
:102C500032969FEF40E05191851751F09F3F19F454
:102C6000511101C0942F4F5F4E31A9F79F3F09F4D6
:102C70000895290F311D97FD3A95F9018283089532
:102C8000909112019923E9F09091380297FF19C0B1
:102C9000982F9695969596959F3111F1E0910001A8
:102CA000F0910101E90FF11D282F277081E090E0DC
:102CB00001C0880F2A95EAF7809591818923818345
:102CC0000895E0910001F09101019F01225E3F4FC4
:102CD0009281891301C012823196E217F307C1F77E
:102CE000089581E090E0E0910001F0910101E80F8A
:102CF000F91F1082019680329105A9F708959091ED
:102D00000602892B809306020895982F9095809152
:102D10000602892380930602089510920602089500
:102D200090910502892B809305020895982F909524
:102D3000809105028923809305020895109205026F
:102D4000089590910402892B809304020895982F8E
:102D50009095809104028923809304020895109233
:102D6000040208958093E30108951092E301089509
:102D70002091000130910101F9013196205E3F4F11
:102D800080E0919191118F5FE217F307D1F70895D9
:102D9000E0910001F0910101809106028083E091B1
:102DA0000001F0910101808190910502892B8083BF
:102DB000E0910001F0910101808190910402892B42
:102DC00080839091E301992361F0E0910001F091FB
:102DD00001018081892B80830E94B8168111109295
:102DE000E30180910001909101010C94F20A6DEED3
:102DF0007EEF80E090E00E94DE2460E082E090E0E0
:102E00000E94CC2460E083E090E00E94CC2460E04B
:102E100084E090E00E94CC2460E085E090E00E9495
:102E2000CC2460E086E090E00C94CC2480E090E03C
:102E30000E94C62421E08D3E9E4F09F020E0822FA3
:102E4000089582E090E00C94BE24682F82E090E028
:102E50000C94CC2483E090E00C94BE24682F83E093
:102E600090E00C94CC2484E090E00C94BE24682F75
:102E700084E090E00C94CC2486E090E00C94BE2496
:102E8000682F86E090E00C94CC2480913F0284303F
:102E900051F11092080220E488E190E00FB6F89416
:102EA000A895809360000FBE2093600080E00E9490
:102EB0002A0780E00E94580783B7817F846083BF20
:102EC00083B7816083BF7894889583B78E7F83BFF3
:102ED0000FB6F894A8958091600088618093600097
:102EE000109260000FBE089508950C947417CF934C
:102EF0000E9475170E942A0A0E947417C0E08C2F46
:102F00000E94D70A892B31F4CF5FC530C1F780E02A
:102F1000CF91089581E0FCCF0E94E70F0E94DD1B56
:102F20000E94E60A0C9458071F920F920FB60F9258
:102F300011248F939F93AF93BF93809108028111C7
:102F400013C08091340290913502A0913602B09165
:102F500037024196A11DB11D809334029093350232
:102F6000A0933602B0933702BF91AF919F918F919A
:102F70000F900FBE0F901F90189582E084BD93E0D4
:102F800095BD9AEF97BD80936E0008952FB7F89482
:102F90008091340290913502A0913602B0913702AF
:102FA0002FBF0895CF92DF92EF92FF920F931F935E
:102FB0002FB7F89440913402509135026091360257
:102FC000709137022FBF6A017B01EE24FF248C0130
:102FD00020E030E0C016D106E206F30650F0481BB0
:102FE000590BCA011F910F91FF90EF90DF90CF9086
:102FF000089541505109F3CF1F920F920FB60F92CF
:1030000011248F939F93AF93BF938091340290913B
:103010003502A0913602B09137020196A11DB11D73
:103020008093340290933502A0933602B093370216
:10303000BF91AF919F918F910F900FBE0F901F90F6
:1030400018950E946120F8942FEF87EA91E62150AD
:1030500080409040E1F700C0000087E090EBDC0189
:103060008093480290934902A0934A02B0934B0286
:103070009CE088E10FB6F894A895809360000FBE9D
:1030800090936000FFCFAF92BF92CF92DF92EF920A
:10309000FF920F931F93CF93C0E0CC24C394D12C05
:1030A000E82EF12C8C2F0E94D70A5C0100E010E082
:1030B000C601002E02C0880F991F0A94E2F78A21E8
:1030C0009B21892B99F40F5F1F4F0E30110581F75B
:1030D000CF5FC53039F780E0CF911F910F91FF90FE
:1030E000EF90DF90CF90BF90AF900895602F7C2F2E
:1030F00080E00E945B07E816F90629F781E0ECCF33
:10310000CF93C82F8CE20E944318882321F08C2F84
:10311000CF910C94431880E0CF910895CF930E94F3
:103120001617811102C00E94F716C5E6C15009F0BA
:10313000E9C089E20E948018811118C18AE20E94C8
:10314000801881110E94F71685E00E948018811175
:103150000E9421180E9421178093070287E00E9495
:103160008018882389F08BE10E948018882309F455
:10317000D2C08091070281FB992790F921E0922724
:1031800090FB81F980930702809107020E94251726
:103190000E94331790E0909339028093380280EEBA
:1031A0000E948018882341F080913802982F9095D2
:1031B00090FB80F98093380289E30E94801888236D
:1031C00059F08091380281FB992790F921E09227EC
:1031D00090FB81F98093380282EE0E948018882348
:1031E00059F08091380282FB992790F921E09227CB
:1031F00090FB82F98093380286EE0E948018882323
:1032000059F08091380283FB992790F921E09227A9
:1032100090FB83F98093380283EE0E948018882304
:1032200059F08091380284FB992790F921E0922788
:1032300090FB84F98093380285E30E9480188823EC
:1032400059F08091380285FB992790F921E0922767
:1032500090FB85F98093380281E30E9480188823CF
:1032600059F08091380286FB992790F921E0922746
:1032700090FB86F98093380281E10E9480188823B0
:1032800059F08091380287FB992790F921E0922725
:1032900090FB87F980933802809138020E9437179B
:1032A00087E20E948018C82F8EE10E948018811149
:1032B000C2608FE10E9480188111C46080E20E9488
:1032C00080188111C86081E20E9480188111C0615C
:1032D00082E20E9480188111C06283E20E948018FD
:1032E0008111C06484E20E9480188823C9F1C068FB
:1032F0008C2F0E942E176C2F70E080E090E0CF9111
:103300000C94D5130E942A0A8FE39CE90197F1F7E8
:1033100000C000000BCF8EE00E948018882351F07F
:103320008091070282FB992790F921E0922790FB78
:1033300082F928CF80E10E948018909107028823AB
:1033400051F093FB882780F921E0822780FB93F9D5
:103350009093070219CF892F809580FB90F9F8CFC1
:10336000C111C6CF0E942A17682FC6CFCF910895EA
:1033700080910B0280FF12C06091050185E0689F7B
:10338000B00111247595679575956795603871053D
:10339000A8F56115710581F581E0089581FF09C0E7
:1033A0006091050185E0689FB001112475956795CE
:1033B000EDCF82FF07C06091050185E0689FB001F5
:1033C0001124E4CF90910C029923A1F060910401A3
:1033D000961788F72091050185E0289F9001112418
:1033E000929FA001939F500D112470E0CA010E948A
:1033F0009024CCCF65E070E0862F08958FE7089584
:1034000080910B0280FF0CC06091030170E0759504
:103410006795759567956115710539F581E0089592
:1034200081FF06C06091030170E075956795F3CF49
:1034300082FF08C06091030170E06038710558F3A5
:103440008FE7089580910C02882369F06091020152
:10345000861780F790910301899FC001112470E0C5
:103460000E949024EACF61E070E0862F0895803FAB
:1034700031F40E94B819819580930F020895813F1D
:1034800019F40E94B819F8CF823F31F40E94B8199C
:10349000819580930E020895833F19F40E94B81914
:1034A000F8CF893F29F40E94001A809310020895F2
:1034B0008A3F21F40E94001A8195F7CF8B3F31F4A7
:1034C0000E94001A81958093110208958C3F19F48F
:1034D0000E94001AF8CF843F31F480910D02816080
:1034E00080930D020895853F21F480910D02826042
:1034F000F7CF863F21F480910D028460F1CF873FA2
:1035000021F480910D028860EBCF883F21F48091F7
:103510000D028061E5CF8D3F31F480910B02816017
:1035200080930B0208958E3F21F480910B028260FC
:10353000F7CF8F3FB9F780910B028460F1CF803FC6
:10354000C1F480910F0287FD10920F0280910E024C
:1035500081110EC080910F0281110AC0809110026A
:10356000811106C080911102811102C010920C02DB
:103570000895813F29F480910F0218162CF3E6CFAD
:1035800090910E02823F29F497FFE0CF10920E0235
:10359000DDCF833F19F41916CCF3D8CF893F39F426
:1035A00080911002181694F610921002CFCF8A3F25
:1035B00029F48091100287FFC9CFF6CF8B3F39F4F1
:1035C0008091110287FFC2CF10921102BFCF8C3FB2
:1035D00029F4809111021816BCF3B8CF843F31F45E
:1035E00080910D028E7F80930D02B0CF853F21F434
:1035F00080910D028D7FF7CF863F21F480910D02DF
:103600008B7FF1CF873F21F480910D02877FEBCF35
:10361000883F21F480910D028F7EE5CF8D3F31F4FC
:1036200080910B028E7F80930B0290CF8E3F21F40E
:1036300080910B028D7FF7CF8F3F09F087CF80916C
:103640000B028B7FF0CF8DE092E00E94FD0A0E947A
:10365000C61790930A028093090208951F93CF938F
:10366000DF938091090290910A020E94D217AC0167
:1036700090910C029923D1F02091060130E042177D
:10368000530780F080910E02C0910F02D09110027A
:1036900010911102811111C0C1117FC0D1117DC0E3
:1036A00011117BC0DF91CF911F91089520910701E7
:1036B0008AE0289F90011124E2CF9F3F19F09F5F7D
:1036C00090930C02181624F40E94B81980930E02ED
:1036D00080910E0287FF05C00E94B81981958093E2
:1036E0000E021C1624F40E94B81980930F028091D8
:1036F0000F0287FF05C00E94B819819580930F02C1
:1037000060910E02662331F1C0910F02CC2311F1BA
:10371000062E000C770B880B990B0E94972323E34E
:1037200033E343E35FE30E94FB230E945F23609344
:103730000E026C2FCC0F770B880B990B0E949723EE
:1037400023E333E343E35FE30E94FB230E945F2311
:1037500060930F021D1624F40E94001A8093100239
:103760008091100287FF05C00E94001A8195809306
:103770001002111624F40E94001A80931102809105
:10378000110287FF05C00E94001A819580931102E3
:10379000DF91CF911F910C94231B9F3F09F08FCF96
:1037A000A0CFEDE0F2E085E0DF011D928A95E9F718
:1037B00010920C0210920B0208950E9416178111AC
:1037C00002C00E94F7160E943C1780933A0280FFC5
:1037D00003C086950C942A0780E0FCCF80913A02C2
:1037E000982F9695292F30E02330310534F49F5FD0
:1037F000990F8170892B80933A0280913A028160FF
:1038000080933A020E94401780913A0286950C9468
:103810002A0790913A02892F869591F08158880F56
:103820009170892B80933A028E7F91E009F490E0A9
:1038300080913A0290FB80F980933A020E944017EF
:1038400080913A0286950C942A0780913A02982F2B
:10385000909590FB80F980933A020E9440178091E6
:103860003A0280FF03C086950C942A0780E0FCCFC3
:1038700090913A02892F86958F5F8F77917084306F
:10388000B8F4880F892B80933A0280913A028E7F98
:1038900091E009F490E080913A0290FB80F98093E6
:1038A0003A020E94401780913A0286950C942A07AA
:1038B00090933A02EACF90913A02292F26958227D7
:1038C000880F9170982B90933A029E7F21E009F423
:1038D00020E080913A0220FB80F980933A020E9416
:1038E000401780913A0286950C942A078091320203
:1038F0000895CF93DF9300D01F92CDB7DEB79C0120
:1039000080913F02843019F593E099833B832A83A9
:103910009093E9008FEF9091E800815095FD06C0EB
:1039200095ED9A95F1F700008111F5CF8091E800AF
:1039300085FF0DC040E050E063E070E0CE010196ED
:103940000E94D41E8091E8008E778093E8000F904B
:103950000F900F90DF91CF910895CF93DF9300D018
:103960001F92CDB7DEB720913F02243031F522E01F
:103970002983805891099B838A8383E08093E9009F
:103980008FEF9091E800815095FD06C095ED9A95D6
:10399000F1F700008111F5CF8091E80085FF0DC09F
:1039A00040E050E063E070E0CE0101960E94D41E3A
:1039B0008091E8008E778093E8000F900F900F9031
:1039C000DF91CF9108959C0180913F028430F9F4FA
:1039D00082E08093E9009FEF8091E800915085FD9F
:1039E00006C085ED8A95F1F700009111F5CF809121
:1039F000E80085FF0CC040E050E065E070E0C901E0
:103A00000E94D41E8091E8008E778093E80008958C
:103A1000CF93DF93EC0180913F02843071F5909158
:103A20001201992369F19091380297FF29C0809380
:103A3000E9008FEF9091E800815095FD06C095E177
:103A40009A95F1F700008111F5CF8091E80085FF8C
:103A500014C040E050E060E270E0CE010E94D41E4D
:103A60008091E8008E778093E80080E2FE01A2E179
:103A7000B2E001900D928A95E1F7DF91CF91089520
:103A800081E08093E9008FEF9091E800815095FDEF
:103A900006C095ED9A95F1F700008111F5CF809160
:103AA000E80085FFEACF40E050E068E070E0D5CF65
:103AB00080913E02811109C00E9461200E94BE20B7
:103AC0008091E20084608093E200089510923E02AB
:103AD0000895089508950C948C1742E061EC81E0FC
:103AE0000E94DE1F42E061EC82E00E94DE1F42E0A5
:103AF00061EC83E00E94DE1F42E261EC84E00C9402
:103B0000DE1F80914102833009F455C030F48130CA
:103B100071F1823009F491C008958A3009F47DC0B2
:103B20008B3009F463C0893009F044C080914002B1
:103B3000813209F03FC08091440290914502009784
:103B400011F00397B9F58091E800877F8093E80032
:103B50008091E80082FF2AC08091F10080933202B8
:103B60008091E8008B778093E8000C94132080917B
:103B70004002813AF9F48091E800877F8093E80061
:103B80008091440290914502892B61F460E282E1C8
:103B900092E070E00E94231F8091E8008B77809371
:103BA000E800089560E080E090E0F3CF80913F026C
:103BB0008111CECF089580914002813AD9F780914A
:103BC000440290914502892BA9F78091E800877FF4
:103BD0008093E8008091E80080FFFCCF8091120183
:103BE0008093F1008091E8008E77BDCF80914002F4
:103BF000813201F78091440290914502892BD1F6E0
:103C00008091E800877F8093E8000E9413208091D4
:103C10004202809312010C94E70F8091400281329E
:103C200049F68091E800877F8093E8000E94132086
:103C30008091430280933302089580914002813A3B
:103C400009F0B8CF8091E800877F8093E8008091E9
:103C5000E80080FFFCCF80913302C2CF84B7877F1A
:103C600084BF0FB6F894A895809160008861809316
:103C70006000109260000FBE80E880936100109297
:103C800061000E94350B0E9461200E94BE2080913D
:103C9000E20084608093E20078940E9443230E94B3
:103CA000370B88E091E00E94E10A80913F02853065
:103CB00019F00E943F0BF9CF0E94451780913D02F9
:103CC000882399F30E947717882379F30E94BE1EF8
:103CD000ECCF292F33272330310579F158F42130E7
:103CE0003105F1F02230310519F180E090E020E05B
:103CF00030E01AC02132310599F122323105A9F79D
:103D0000643098F770E0FB01EE0FFF1FE65DFE4F99
:103D1000208131816A5D7E4FFB01808190E004C08B
:103D200082E190E029E03AE0FA01318320830895AE
:103D30008DE690E02CE939E0F7CF992781309105A5
:103D400061F028F0029789F6ECE6F9E002C0E8E9B4
:103D5000F9E0849190E09F01E7CFE0E8F9E0F9CF46
:103D6000643008F0C2CFE62FF0E0EE0FFF1FEE5CEC
:103D7000FE4F2081318189E090E0D6CF80E189BD7E
:103D800082E189BD09B400FEFDCF8091D8008F7D0E
:103D90008093D8008091E00082608093E000809161
:103DA000E00081FDFCCF0895AF92BF92DF92EF92C9
:103DB000FF920F931F93CF93DF93EC018B017A0156
:103DC0000E943220D82E811124C0E114F10439F070
:103DD000F70180819181081B190BC80FD91FA12CF5
:103DE000B12C01151105A9F08091E80085FD22C0D4
:103DF0008091E8008E778093E800E114F104A1F04F
:103E0000F70180819181A80EB91EB182A08285E060
:103E1000D82E8D2DDF91CF911F910F91FF90EF90B4
:103E2000DF90BF90AF9008950E9432208823C9F29E
:103E3000D82EEFCF89918093F10001501109FFEF47
:103E4000AF1ABF0ACECF2091460230914702261703
:103E50003707A8F06115710529F42091E8002E7745
:103E60002093E800FC0120E06115710551F4211157
:103E700008C08091E80082FF33C080E00895B90156
:103E8000F1CF80913F028823B9F18530B9F180915B
:103E9000E80083FD2FC08091E80082FDEACF809189
:103EA000E80080FFE1CF2091F3008091F20090E0E4
:103EB000922B6115710519F08830910550F021E0C1
:103EC000089709F020E08091E8008E778093E80061
:103ED000CBCF21912093F100615071090196E9CF78
:103EE00080913F02882341F0853041F08091E800C5
:103EF00083FFBFCF81E0089582E0089583E00895B5
:103F0000209146023091470226173707A8F0611525
:103F1000710529F42091E8002E772093E800FC0138
:103F200020E06115710551F4211108C08091E8006D
:103F300082FF34C080E00895B901F1CF80913F0243
:103F40008823C1F18530C1F18091E80083FD30C044
:103F50008091E80082FDEACF8091E80080FFE1CF08
:103F60002091F3008091F20090E0922B6115710591
:103F700019F08830910550F021E0089709F020E011
:103F80008091E8008E778093E800CBCF2491209336
:103F9000F1003196615071090196E8CF80913F029E
:103FA000882341F0853041F08091E80083FFBECF47
:103FB00081E0089582E0089583E00895982F973076
:103FC00028F08F708093E90081E008959093E900D4
:103FD000981751F07091EC002091ED005091F00095
:103FE00021FD06C09F5FEBCF242F762F50E0F8CF46
:103FF0003091EB003E7F3093EB003091ED003D7F40
:104000003093ED003091EB0031603093EB00709312
:10401000EC002093ED005093F0002091EE0027FD7E
:10402000E1CF80E008958091400287FF13C0809126
:10403000E80082FF06C08091E8008B778093E8005B
:1040400004C080913F028111F2CF089580913F0218
:104050008823D9F38091E80080FFF8CF8091E800B1
:104060008E77ECCF2091E4003091E50085E69091C9
:10407000EC0090FD20C09091E80092FD20C090914E
:104080003F02992391F0953091F09091EB0095FDCE
:1040900010C04091E4005091E5004217530739F3F6
:1040A00081509A0121F784E0089582E0089583E029
:1040B000089581E008959091E80090FFE0CF80E0BE
:1040C00008950E94CF200E94D720E0EEF0E080818A
:1040D00081608083E8EDF0E080818F77808319BC78
:1040E000A7EDB0E08C918E7F8C9380818F7E808352
:1040F00010923E0208950F931F93CF93DF930E9477
:10410000CF200E94D720C8EDD0E088818F778883A8
:1041100088818068888388818F7D888319BC10920C
:104120003F0210923B0210923D0210923C0200EEC0
:1041300010E0F80180818B7F808388818160888393
:1041400042E060E080E00E94DE1FE1EEF0E080816E
:104150008E7F8083E2EEF0E08081816080838081C9
:1041600088608083F80180818E7F80838881806170
:104170008883DF91CF911F910F910895E8EDF0E0D2
:1041800080818F7E8083E7EDF0E080818160808395
:1041900084E082BF81E080933E020C947B20E8EDB6
:1041A000F0E080818E7F80831092E200089510926B
:1041B000DA001092E10008951F920F920FB60F924D
:1041C00011242F933F934F935F936F937F938F931C
:1041D0009F93AF93BF93EF93FF938091E10082FF92
:1041E0000BC08091E20082FF07C08091E1008B7FCD
:1041F0008093E1000E9442238091DA0080FF19C081
:104200008091D80080FF15C08091DA008E7F809366
:10421000DA008091D90080FF94C080E189BD82E1FD
:1042200089BD09B400FEFDCF81E080933F020E946A
:10423000581D8091E10080FF19C08091E20080FF4D
:1042400015C08091E2008E7F8093E2008091E200B1
:1042500080618093E2008091D80080628093D800D2
:1042600019BC85E080933F020E946A1D8091E100A5
:1042700084FF29C08091E20084FF25C080E189BDD0
:1042800082E189BD09B400FEFDCF8091D8008F7D09
:104290008093D8008091E1008F7E8093E10080912F
:1042A000E2008F7E8093E2008091E2008160809343
:1042B000E20080913B02882309F449C084E08093A6
:1042C0003F020E946B1D8091E10083FF29C0809115
:1042D000E20083FF25C08091E100877F8093E100A9
:1042E00082E080933F0210923B028091E1008E7F3A
:1042F0008093E1008091E2008E7F8093E2008091C4
:10430000E20080618093E20042E060E080E00E9491
:10431000DE1F8091F00088608093F0000E94691D8C
:10432000FF91EF91BF91AF919F918F917F916F918D
:104330005F914F913F912F910F900FBE0F901F9063
:10434000189519BC10923F020E94661D72CF809191
:10435000E30087FD02C081E0B2CF83E0B0CF1F92BF
:104360000F920FB60F9211242F933F934F935F93A9
:104370006F937F938F939F93AF93BF93CF93EF935D
:10438000FF93C091E900CF708091EC001092E9009A
:104390008091F000877F8093F00078940E94EB2159
:1043A0001092E9008091F00088608093F000C09343
:1043B000E900FF91EF91CF91BF91AF919F918F91C4
:1043C0007F916F915F914F913F912F910F900FBE11
:1043D0000F901F9018951F93CF93DF93CDB7DEB743
:1043E000AA970FB6F894DEBF0FBECDBFE0E4F2E0AF
:1043F0008091F100819322E0E834F207C9F70E942E
:10440000811D8091E80083FF44C08091400290911B
:104410004102492F50E04A30510508F03AC0FA01F4
:10442000EC5EFD4D0C94A4241E224222492242221D
:1044300049229D22C022492215232223803879F067
:10444000823839F5809144028F708093E900809121
:10445000EB0085FB882780F91092E90006C0809167
:104460003C0290913D02911182609091E800977F0B
:104470009093E8008093F1001092F1008091E800A1
:104480008E772DC0282F2D7F21F48823D1F0823004
:1044900059F18091E80083FF0AC08091E800877F8E
:1044A0008093E8008091EB0080628093EB00AA96F5
:1044B0000FB6F894DEBF0FBECDBFDF91CF911F9135
:1044C000089580914202813021F7933009F080E015
:1044D00080933D021092E9008091E800877F8093ED
:1044E000E8000E941320D5CF809142028111F2CFC3
:1044F000809144028F7069F28093E9002091EB0073
:1045000020FFE8CF933031F48091EB0080628093FC
:10451000EB00E0CF9091EB0090619093EB0021E0F5
:1045200030E001C0220F8A95EAF72093EA0010924A
:10453000EA008091EB008860EACF8111AACF109148
:1045400042021F778091E3008078812B8093E30003
:104550008091E800877F8093E8000E94132080917B
:10456000E80080FFFCCF8091E30080688093E30047
:10457000111104C082E080933F028BCF83E0FBCF18
:104580008058823008F085CF80914202909143029A
:104590008C3D23E09207A1F583E08A838AE2898338
:1045A0004FB7F894DE01139620E03EE051E2E32F8E
:1045B000F0E050935700E49120FF03C0E295EF70C4
:1045C0003F5FEF708E2F90E0EA30C0F0C7968D937A
:1045D0009D932F5F243159F74FBF8091E800877F6B
:1045E0008093E8006AE270E0CE0101960E94231FEA
:1045F0008091E8008B778093E8004BCFC096E7CF9F
:10460000AE014F5F5F4F609144020E94691EBC0182
:10461000892B09F43ECF9091E800977F9093E800B2
:1046200089819A810E94801FE3CF803809F031CFC1
:104630008091E800877F8093E80080913B0280931F
:10464000F1001CCF811125CF90914202923008F0E9
:1046500020CF8091E800877F8093E80090933B0211
:104660000E94132080913B02882311F084E005C052
:104670008091E30087FDFACF81E080933F020E94A2
:104680006D1D07CF0895CF9380913F02882399F045
:10469000C091E900CF708091EC0080FD0EC080E0F9
:1046A000C82B1092E9008091E80083FD0E94EB2165
:1046B000CF70C093E900CF91089580E8F1CF0E94B8
:1046C00066236894B1110C94F52308950E94DA23AF
:1046D00088F09F5798F0B92F9927B751B0F0E1F0C3
:1046E000660F771F881F991F1AF0BA95C9F714C073
:1046F000B13091F00E94F423B1E008950C94F423BA
:10470000672F782F8827B85F39F0B93FCCF38695AB
:1047100077956795B395D9F73EF490958095709508
:1047200061957F4F8F4F9F4F0895E89409C097FB85
:104730003EF490958095709561957F4F8F4F9F4F78
:104740009923A9F0F92F96E9BB279395F6958795BC
:1047500077956795B795F111F8CFFAF4BB0F11F47F
:1047600060FF1BC06F5F7F4F8F4F9F4F16C0882326
:1047700011F096E911C0772321F09EE8872F762F5C
:1047800005C0662371F096E8862F70E060E02AF09D
:104790009A95660F771F881FDAF7880F9695879589
:1047A00097F9089557FD9058440F551F59F05F3FF2
:1047B00071F04795880F97FB991F61F09F3F79F043
:1047C00087950895121613061406551FF2CF4695C5
:1047D000F1DF08C0161617061806991FF1CF869547
:1047E0007105610508940895E894BB27662777272B
:1047F000CB0197F908950E940E240C947F240E9407
:10480000712438F00E94782420F0952311F00C9444
:1048100068240C946E2411240C94F5230E94D22356
:1048200070F3959FC1F3950F50E0551F629FF00103
:10483000729FBB27F00DB11D639FAA27F00DB11D1C
:10484000AA1F649F6627B00DA11D661F829F2227A5
:10485000B00DA11D621F739FB00DA11D621F839F2C
:10486000A00D611D221F749F3327A00D611D231F02
:10487000849F600D211D822F762F6A2F11249F5750
:1048800050409AF0F1F088234AF0EE0FFF1FBB1F53
:10489000661F771F881F91505040A9F79E3F510512
:1048A00080F00C9468240C94F5235F3FE4F3983E69
:1048B000D4F3869577956795B795F795E7959F5FBC
:1048C000C1F7FE2B880F911D9695879597F908954E
:1048D00097F99F6780E870E060E008959FEF80ECB3
:1048E000089500240A941616170618060906089556
:1048F00000240A9412161306140605060895092EBC
:104900000394000C11F4882352F0BB0F40F4BF2B2A
:1049100011F460FF04C06F5F7F4F8F4F9F4F08956A
:1049200097FB072E16F4009407D077FD09D00E945C
:10493000AA2407FC05D03EF4909581959F4F0895D9
:10494000709561957F4F0895EE0FFF1F0590F491CC
:10495000E02D0994AA1BBB1B51E107C0AA1FBB1F76
:10496000A617B70710F0A61BB70B881F991F5A95FB
:10497000A9F780959095BC01CD010895F999FECFD6
:1049800092BD81BDF89A992780B50895A8E1B0E05D
:1049900042E050E00C94E624262FF999FECF92BD18
:1049A00081BDF89A019700B4021639F01FBA20BDF4
:1049B0000FB6F894FA9AF99A0FBE08950196272F28
:1049C0000E94CD240C94CC24DC01CB01FC01F9998C
:1049D000FECF06C0F2BDE1BDF89A319600B40D924B
:0C49E00041505040B8F70895F894FFCF04
:1049EC00E4012808140A321E761C081DE31CAD1CB9
:1049FC00791C01F0F1C667663794313035349796DF
:104A0C00339091929395404D3639D70A8A0A540ABD
:0A4A1C001B0AAE09C709E009F909F9
:00000001FF
